{
  "contractName": "Voting",
  "abi": [
    {
      "constant": false,
      "inputs": [
        {
          "name": "ballotID",
          "type": "bytes32"
        },
        {
          "name": "len",
          "type": "uint256"
        },
        {
          "name": "numOfCands",
          "type": "uint256"
        },
        {
          "name": "cands",
          "type": "bytes32[]"
        },
        {
          "name": "votes",
          "type": "uint256[]"
        }
      ],
      "name": "createBallot",
      "outputs": [],
      "payable": false,
      "stateMutability": "nonpayable",
      "type": "function"
    },
    {
      "constant": false,
      "inputs": [
        {
          "name": "ballotID",
          "type": "bytes32"
        }
      ],
      "name": "setEndedBallot",
      "outputs": [
        {
          "name": "",
          "type": "bool"
        }
      ],
      "payable": false,
      "stateMutability": "nonpayable",
      "type": "function"
    },
    {
      "constant": false,
      "inputs": [
        {
          "name": "ballotID",
          "type": "bytes32"
        },
        {
          "name": "index",
          "type": "uint256"
        }
      ],
      "name": "addVote",
      "outputs": [
        {
          "name": "",
          "type": "bool"
        }
      ],
      "payable": false,
      "stateMutability": "nonpayable",
      "type": "function"
    },
    {
      "constant": true,
      "inputs": [
        {
          "name": "ballotID",
          "type": "bytes32"
        }
      ],
      "name": "confirmBallot",
      "outputs": [
        {
          "name": "",
          "type": "bool"
        }
      ],
      "payable": false,
      "stateMutability": "view",
      "type": "function"
    },
    {
      "constant": true,
      "inputs": [
        {
          "name": "ballotID",
          "type": "bytes32"
        }
      ],
      "name": "checkActiveBallot",
      "outputs": [
        {
          "name": "",
          "type": "bool"
        }
      ],
      "payable": false,
      "stateMutability": "view",
      "type": "function"
    },
    {
      "constant": true,
      "inputs": [
        {
          "name": "ballotID",
          "type": "bytes32"
        }
      ],
      "name": "getCandidateSize",
      "outputs": [
        {
          "name": "",
          "type": "uint256"
        }
      ],
      "payable": false,
      "stateMutability": "view",
      "type": "function"
    },
    {
      "constant": true,
      "inputs": [
        {
          "name": "ballotID",
          "type": "bytes32"
        }
      ],
      "name": "getCandidateInfo",
      "outputs": [
        {
          "name": "",
          "type": "bytes32[]"
        }
      ],
      "payable": false,
      "stateMutability": "view",
      "type": "function"
    },
    {
      "constant": true,
      "inputs": [
        {
          "name": "ballotID",
          "type": "bytes32"
        }
      ],
      "name": "getVotingInfo",
      "outputs": [
        {
          "name": "",
          "type": "uint256[]"
        }
      ],
      "payable": false,
      "stateMutability": "view",
      "type": "function"
    }
  ],
  "bytecode": "0x608060405234801561001057600080fd5b5061092b806100206000396000f30060806040526004361061008e576000357c0100000000000000000000000000000000000000000000000000000000900463ffffffff1680631371e3341461009357806369d2096e1461015e5780636df8d1be146101b1578063acd7ec1f14610237578063bd667c5914610280578063f4eae7c0146102c5578063f5606b971461030e578063fe135ffa14610357575b600080fd5b34801561009f57600080fd5b5061015c6004803603810190808035600019169060200190929190803590602001909291908035906020019092919080359060200190820180359060200190808060200260200160405190810160405280939291908181526020018383602002808284378201915050505050509192919290803590602001908201803590602001908080602002602001604051908101604052809392919081815260200183836020028082843782019150505050505091929192905050506103dd565b005b34801561016a57600080fd5b50610197600480360381019080803560001916906020019092919080359060200190929190505050610567565b604051808215151515815260200191505060405180910390f35b3480156101bd57600080fd5b506101e060048036038101908080356000191690602001909291905050506105b3565b6040518080602001828103825283818151815260200191508051906020019060200280838360005b83811015610223578082015181840152602081019050610208565b505050509050019250505060405180910390f35b34801561024357600080fd5b506102666004803603810190808035600019169060200190929190505050610628565b604051808215151515815260200191505060405180910390f35b34801561028c57600080fd5b506102af60048036038101908080356000191690602001909291905050506106e4565b6040518082815260200191505060405180910390f35b3480156102d157600080fd5b506102f4600480360381019080803560001916906020019092919050505061070b565b604051808215151515815260200191505060405180910390f35b34801561031a57600080fd5b5061033d6004803603810190808035600019169060200190929190505050610750565b604051808215151515815260200191505060405180910390f35b34801561036357600080fd5b50610386600480360381019080803560001916906020019092919050505061079c565b6040518080602001828103825283818151815260200191508051906020019060200280838360005b838110156103c95780820151818401526020810190506103ae565b505050509050019250505060405180910390f35b6000809050610100604051908101604052803373ffffffffffffffffffffffffffffffffffffffff16815260200160011515815260200160011515815260200186815260200185815260200182600181111561043557fe5b815260200184815260200183815250600080886000191660001916815260200190815260200160002060008201518160000160006101000a81548173ffffffffffffffffffffffffffffffffffffffff021916908373ffffffffffffffffffffffffffffffffffffffff16021790555060208201518160000160146101000a81548160ff02191690831515021790555060408201518160000160156101000a81548160ff021916908315150217905550606082015181600101556080820151816002015560a08201518160030160006101000a81548160ff0219169083600181111561051d57fe5b021790555060c082015181600401908051906020019061053e929190610815565b5060e082015181600501908051906020019061055b929190610868565b50905050505050505050565b600080600084600019166000191681526020019081526020016000206005018281548110151561059357fe5b906000526020600020016000815480929190600101919050555092915050565b6060600080836000191660001916815260200190815260200160002060050180548060200260200160405190810160405280929190818152602001828054801561061c57602002820191906000526020600020905b815481526020019060010190808311610608575b50505050509050919050565b6000806000836000191660001916815260200190815260200160002060000160009054906101000a900473ffffffffffffffffffffffffffffffffffffffff1673ffffffffffffffffffffffffffffffffffffffff163373ffffffffffffffffffffffffffffffffffffffff1614156106da576000806000846000191660001916815260200190815260200160002060000160156101000a81548160ff021916908315150217905550600190506106df565b600090505b919050565b60008060008360001916600019168152602001908152602001600020600201549050919050565b6000806000836000191660001916815260200190815260200160002060000160159054906101000a900460ff1615610746576001905061074b565b600090505b919050565b600060011515600080846000191660001916815260200190815260200160002060000160149054906101000a900460ff16151514156107925760019050610797565b600090505b919050565b6060600080836000191660001916815260200190815260200160002060040180548060200260200160405190810160405280929190818152602001828054801561080957602002820191906000526020600020905b815460001916815260200190600101908083116107f1575b50505050509050919050565b828054828255906000526020600020908101928215610857579160200282015b82811115610856578251829060001916905591602001919060010190610835565b5b50905061086491906108b5565b5090565b8280548282559060005260206000209081019282156108a4579160200282015b828111156108a3578251825591602001919060010190610888565b5b5090506108b191906108da565b5090565b6108d791905b808211156108d35760008160009055506001016108bb565b5090565b90565b6108fc91905b808211156108f85760008160009055506001016108e0565b5090565b905600a165627a7a72305820d4e757bc5a5ba8d35eaecbbf4e24ded5ad97303de350949dfed7b82b9d30e9310029",
  "source": "pragma solidity ^0.4.17;\n// written for Solidity version 0.4.18 and above that doesnt break functionality\n\ncontract Voting {\n\n    enum Restriction {None, Country}\n    struct Ballot {\n        address creator;\n        bool exists;\n        bool active;\n        uint length;\n        uint numOfCands;\n        Restriction restriction;  // the restrictions that can be applied to voting\n        bytes32[] candidates;\n        uint[] voteCount;\n    }\n    mapping (bytes32 => Ballot) ballots; // unique ID that will be used to identify the Ballot\n\n    // a function to create a ballot\n    function createBallot(bytes32 ballotID, uint len, uint numOfCands, bytes32[] cands, uint[] votes) public { \n        Restriction rest = Restriction.None;\n        ballots[ballotID] = Ballot(msg.sender, true, true, len, numOfCands, rest, cands, votes);\n    }\n\n\n    /* SETTER FUNCTIONS */\n\n    // set ballot to be over\n    function setEndedBallot(bytes32 ballotID) public returns (bool) {\n        if (msg.sender == ballots[ballotID].creator) {\n            ballots[ballotID].active = false;\n            return true;\n        }\n        else\n            return false;\n    }\n\n    // add vote\n    function addVote(bytes32 ballotID, uint index) public returns (bool) {\n        ballots[ballotID].voteCount[index]++;\n    }\n    \n    /* CHECKING FUNCTIONS */\n\n    // a view function to see if a ballot exists\n    function confirmBallot(bytes32 ballotID) public view returns (bool) {\n        if (ballots[ballotID].exists == true)\n            return true;\n        else\n            return false;\n    }\n\n    // a vew function to see if a ballot is still active\n    function checkActiveBallot(bytes32 ballotID) public view returns (bool) {\n        if (ballots[ballotID].active)\n            return true;\n        else\n            return false;\n    }\n\n\n    /* GETTER FUNCTIONS */\n\n    // a view function of the length of candidate list\n    function getCandidateSize(bytes32 ballotID) public view returns (uint) {\n        return( ballots[ballotID].numOfCands);\n    }\n\n    // a view function to access a ballots candidates\n    function getCandidateInfo(bytes32 ballotID) public view returns (bytes32[]) {\n        return( ballots[ballotID].candidates);\n    }\n\n    // a view function to access a ballots candidates\n    function getVotingInfo(bytes32 ballotID) public view returns (uint[]) {\n        return( ballots[ballotID].voteCount);\n    }\n}\n",
  "sourcePath": "/home/guy/projects/cooper/blockchain/final/Ballot/dApp/contracts/Voting.sol",
  "compiler": {
    "name": "solc",
    "version": "0.4.23+commit.124ca40d.Emscripten.clang"
  },
  "schemaVersion": "2.0.0",
  "updatedAt": "2018-05-02T22:55:50.325Z"
}